:10000000C0C60000D0C60000CEC60000CCC60000AE
:10001000CAC600000C94122AC6C600000C944D0EED
:10002000C2C60000C0C600000C945B200C94012ADC
:100030000C94062A0C943720B6C60000B4C6000003
:100040000C94E029B0C60000AEC60000ACC60000AB
:10005000AAC600000C944E0EA6C60000A4C600005E
:10006000A2C60000A0C60000E62FF72F903009F4CA
:100070009395E5B8C4B8B7EFB0937A00A5E0A09324
:100080007B00A8E0A093810010928000AFEFA093C6
:100090008500A0938400A6E0A093360010928B0008
:1000A00010928A00B6E0AFE7A91B51E0392F363035
:1000B0002AF0A058B94F53953650F9CFB093890024
:1000C000A0938800A0917A00A4FFFCCFB7EBB09377
:1000D0007A00A2E0A0936F00A9E0A093810062E003
:1000E000A0E0A0937B00A1E0A09353008895E5B821
:1000F000C4B884FF19C0A3E4AA95F1F7EF93FF9366
:10010000E7B1F8B1A4E0C2FCA2E0C0FCA1E0BF2FBF
:10011000BA2BAE2BB8B904B9A7B9E7B9F8B9FF91B2
:10012000EF910AC00C947300A7E40000AA95F1F7C0
:1001300025B9E5B8000004B9A0918400A09185001C
:10014000B0918900A395AB1768F7A0917A00A4FF3E
:10015000F3CFB7EBB0937A006A9571F760917800AE
:1001600070917900308186FD630F6193308186FD47
:10017000731F80FF7193652F4A9579F710926F0076
:1001800010928100B7E0B0937A000895D201CB01BC
:10019000C4011008407E01013E01013E01013E0103
:1001A000017E404018000720080808F800000020E1
:1001B00060A03FA06020020202FF020202101010A5
:1001C0001F000000050842818989760508C2A191B7
:1001D00089860508000402FF0010100508F8783829
:1001E0005888091003081C3E7F0D080710FF818105
:1001F00081F1E1C1FF4040404743410D080110FF3C
:10020000FF11080310F1E1C14743410E000820210E
:1002100021122060E0E0E0FEFE0402010001037F05
:100220007F21C2C4C4C04094840007030102040EAD
:10023000080210FEFE7F7F00000000110005202054
:1002400060E0E0E00201000103C2C4C4C040070353
:100250000102040104100102044E6F742063616CFA
:10026000696272617465642100B903870358032EC3
:10027000030703E402C302A4028802000014002959
:10028000003E005300690080009700AE00C600DF0A
:1002900000F80012012D01490165018201A001BE93
:1002A00001DE01FF012102440268028E02B502DE76
:1002B000020903350364039403C803FE0337047380
:1002C00004B404F90443059305EA054906B3062975
:1002D00007AE074808FF08DE09FD0A930C480F998E
:1002E0001B000000000000000000000000000000F3
:1002F000001E2121211200807F0000007E4A4A4A10
:1003000034000000000000FC40201008040201003E
:100310000000010101010101010101010101017F51
:100320000488D0E0F0F800000000000000000000A9
:100330000000000000000000FC9494840000010212
:10034000FC0000000000000000000000001E212151
:100350002112E0C0804020100F000000C0202020AB
:1003600040000000FC00009E9E0403030303020003
:100370000000202023242525232020203F00007B6F
:100380007B2142840480C0000000000000000000C7
:100390000000000000FC949484000406070707088E
:1003A000F000000000000000000000000000803F9E
:1003B0002121120C00000000FF000000F008484856
:1003C000C80000FE0000E7818181C1E1F1818181E7
:1003D00001002020202121212020203F0000F34087
:1003E000404041434740407FC00000000000000003
:1003F0000000000000000048949494640000000095
:10040000FF000000000000000000000000000000ED
:10041000003F2121120C0000FF000000F0084848B6
:10042000D0000000000000FEFE04040404040404E4
:10043000070008080809090908087F3E1C08087F0A
:100440007F20202020202020E0000000000000006D
:100450000000000000000000004894949464000034
:10046000FF0000000000000000000000FF003C0A48
:10047000090A3C002231292926000082868E9EBE70
:10048000FEFEBEDEEFF6FAFEFEFAF2E2C2820000E7
:100490000008080804027984A4A46800FF00000092
:1004A000000000000000000000000000000000004C
:1004B00000000000FF0000F0282428F0001008FCD5
:1004C0000000000000000000000000003C0A090AD3
:1004D0003C00FF00000000000000000000000000E1
:1004E0000000000000040C1C3C7CFF7C3C1C0C0445
:1004F0000000000000009EA1A9A99A804323130BCD
:100500000703FF03030303030300000000000000D0
:1005100000000000788484844800FF000000000090
:1005200000000000F00804E211090909090909099D
:1005300009091121C2040810E000000001020404AE
:1005400007000000000080402010884423100804A9
:10055000030000000000000000000000FE0100FC9D
:100560000201000000000000000000000000000088
:1005700000000000794949790000000000000000F7
:100580000040F010101010F04000010101010101C5
:100590000040FCF8F0E040FC4000070301000007C9
:1005A0000040FC40E0F0F8FC4000070000010307B9
:1005B0000040FCFC0000FCFC4000070700000707AF
:1005C000007884820282847800060407000704060B
:1005D0000000FC000000F01000100F0204020704ED
:1005E00000080808080808F8400202020202020394
:1005F0000040F80808080808080003020202020286
:1006000002404040404040404000000000000000E8
:1006100000C000008000008000010202010202010F
:100620000200800000800000C002010202010202FC
:100630000100F8040222548800101F100202010079
:1006400000000000000000000000000000000000AA
:10065000000000000000000000000000000000009A
:10066000000000000000000000000000000000008A
:10067000000000000000000000000000000000007A
:10068000000000F80402FE02000C06050404070C3A
:100690000002FE020002FE02000407040404170C1C
:1006A0000002FE02F002FE02000407040704170C19
:1006B000000000E01008F808000C06050404070C10
:1006C00000804028F8284080000102141F14020115
:1006D0000008F8080008F808000407040404170CD0
:1006E0000008F808C008F808000407040704170CFD
:1006F00000001018FCFC18100000010101010101AC
:1007000000001018FC18100000000000010000009C
:1007100000000000FC0000000000010101010100D8
:10072000004040404050E040000000000001000058
:10073000002070A820202020000000000000000001
:1007400000E00000000000000001010101010101C2
:10075000002070A82020A8702000000000000000E9
:100760000000C0F0FCF0C00000000000000000002D
:10077000000C3CFCFCFC3C0C0000000000000000F5
:100780000000000000000000000000000000000069
:1007900000000000FE000000000000000D0000004E
:1007A0000000160E0000160E000000000000000001
:1007B000000010FC1010FC100000010701010701EF
:1007C00000001824FE448800000003040F04030006
:1007D000000C12924C2010080002010006090906C4
:1007E000008C5222528C40C0000102040404010219
:1007F00000000000160E00000000000000000000D5
:10080000000000F0080402000000000102040800DB
:10081000000000020408F0000000000804020100CB
:10082000004850E0FCE050480002010007000102CF
:1008300000404040F840404000000000030000003D
:10084000000000000000000000000000160E000084
:1008500000404040404040400000000000000000D8
:10086000000000000000000000000000060600007C
:10087000000000804020100800020100000000007D
:1008800000F80402020204F8000102040404020158
:1008900000000804FE020000000004040704040035
:1008A0000008040282422418000406050404040619
:1008B0000006020202122AC6000102040404020118
:1008C00000C0A09E8080FC8000000000000407049F
:1008D000003E120A0A0A12E60001020404040201A0
:1008E00000F84422121224C0000102040404020190
:1008F000000E02C262321A0E000000070000000063
:1009000000885422222254880001020404040201B7
:1009100000384482824224F80000020404040201E8
:10092000000000001818000000000000060600008B
:10093000000000001818000000000000160E000063
:10094000000040A01008040200000000010204089A
:1009500000002020202020200000010101010101D1
:10096000000002040810A04000000804020100007A
:100970000018040282422418000000000D0000004C
:1009800000F804D252E204F800010205050405044F
:100990000200F0080402FE02000407050105070436
:1009A0000002FE22222254880004070404040201EB
:1009B00000F804020202048E000102040404020191
:1009C0000002FE02020204F800040704040402010B
:1009D0000002FE222272020E00040704040404072F
:1009E0000002FE222272020E00040704040000002E
:1009F00000F80402C24244DE0001020404020107BE
:100A00000002FE222022FE02000407040004070464
:100A100000000202FE0202000000040407040400B9
:100A2000000000000202FE020000030404040300B0
:100A30000002FE629008040200040704000106049C
:100A40000002FE0200000000000407040404040782
:100A50000002FE38E038FE02000407040004070428
:100A60000002FE1A6082FE0200040704000507046B
:100A700000F80402020204F8000102040404020166
:100A80000002FE4242422418000407040000000055
:100A900000F80402028204F80001020404040502C2
:100AA0000402FE42C24224180004070400010604A6
:100AB000008814222222448E000102040404020150
:100AC000000E0202FE02020E0000040407040400ED
:100AD0000002FE020002FE02000003040404030000
:100AE0000002FE820082FE020000000306030000F6
:100AF0000002FE02F002FE020000010703070100EF
:100B00000002DE722072DE02000407040004070403
:100B100000027EC280C27E020000000407040000C2
:100B2000000E824222120A0600070404040404078D
:100B30000000FE020202000000000704040400009E
:100B400000081020408000000000000000000102AA
:100B5000000000020202FE0000000004040407007E
:100B6000001008040204081000000000000000004B
:100B7000000000000000000000080808080808083D
:100B8000000000000E160000000000000000000041
:100B900000904828284890E000010204040402075D
:100BA0000002FE10080810E000040702040402011D
:100BB00000E01008080810380001020404040201D3
:100BC00000E010080810FE020001020404020704FD
:100BD00000E050484848506000010204040402014B
:100BE0000020F82422020C00000407040400000086
:100BF00000E010080810F8080000091212090700A8
:100C00000002FE100808F0000004070400040704B6
:100C100000001016F60000000000040407040400A1
:100C2000000000101616F00000000C1010100F004D
:100C30000002FEC02010081800040704010204048A
:100C40000000000202FE000000000004040704048B
:100C50000008F808F008F000000407000700070487
:100C60000008F8201008F00000040704000407043E
:100C700000E01008080810E000010204040402016A
:100C80000008F810080810E000101F120404020108
:100C900000E010080810F8080001020404121F10F8
:100CA0000008F820100808300004070400000000C5
:100CB000001028484848903800010204040402014A
:100CC000000808FE080800000000000304040402F5
:100CD0000008F8080008F8080000030404020704EC
:100CE0000008F8880088F8080000000306030000E8
:100CF0000008F808C008F80800000306030603000F
:100D00000008B8E040E0B80800040700000007044D
:100D10000008F8080008F8080000091212110F0076
:100D2000001808884828180800060504040404066A
:100D30000040B01C0202000000000107080800008B
:100D400000000000FE000000000000001F00000086
:100D500000000002021CB04000000008080701006B
:100D6000000C020204080804020000000000000059
:100D700000C02010081020C0000101010101010184
:100D8000000011241FBECFEFD8E0DEBFCDBF21E0B1
:100D9000A0E0B1E001C01D92AE3BB207E1F70E94B6
:100DA00017360C94693E2CC96F938F935598EFD5E5
:100DB000529AEDD588E70ED06F9180E860FD80E40F
:100DC00009D08F9107D0529AE2D55598E0D5529824
:100DD000DEC508950894881F559A10F4529801C0F2
:100DE000529AD5D55598D3D5880FB1F7559A5298C0
:100DF000CED555984D9BFECF4A9981E0C8D5559ADE
:100E0000C6C50895529855985A985D98089560936C
:100E10003F018093040186958093A501660F660FBC
:100E2000660F60930F0108951092A50160E080E0C5
:100E3000EECF089581E08093A50160E082E0E7CFE6
:100E4000089582E08093A50160E084E0E0CF0895FA
:100E500083E08093A50160E086E0D9CF089580917A
:100E60003F01809301018091A501809303010895C2
:100E70008091030160910101880FC9CF0895CF933C
:100E8000C82F692F81E090DF6C2F81E08DDFCF913B
:100E90000895682F80E088CF08958EEAFADF85EA0A
:100EA000F8CF0895CF93DF93C0E080E1F2DF80E0D8
:100EB000F0DF8C2F806BEDDFD4E860E081E074DF41
:100EC000D150D9F7CF5FC83081F7AEDFDF91CF9136
:100ED000089598DF84E15FD58EEADBDF82EED9DF0B
:100EE00082EAD7DF80EAD5DF80ECD3DF85EDD1DF82
:100EF00080E8CFDF8DE8CDDF84E1CBDF81E8C9DF9B
:100F00008BE393E00E943B3EC4DF80E4C2DF84EACF
:100F1000C0DF86EABEDFC6DF8FEABBDF60E080E0CD
:100F200076CF08950895582F28E030E090E841E00A
:100F300080E0652F642309F0892B440F969521509A
:100F40003109B9F70895A3E0B0E0E9EAF7E00C94BD
:100F5000AA3D8A839B83742EC02ED12CC601860F96
:100F6000911D813891050CF041C04E0D5527551F3C
:100F7000CA0141345105D4F576947694769401975C
:100F800033E0959587953A95E1F7522F5270552E9B
:100F900021FF11C0482F4719550BFA01EC9DA00104
:100FA000ED9D500DFC9D500D1124EA81FB81E40F55
:100FB000F51FFB83EA83682EF7E0F81710F497E03B
:100FC000692E10E8101B161B812F82958F7080618F
:100FD000898387E0482E1F70022F0170671450F438
:100FE0009091040187E0891B806B53DF2396E0E139
:100FF0000C94C63D842D8719806B4BDF898149DFB6
:10100000812F47DFAA80BB80AC0CBD1C75018A8094
:101010009B804A815B814E155F0549F4552019F08C
:101020005A01AC18BD087394BB82AA82D7CFA7011E
:10103000415051097A01FA010111F40184915110D2
:1010400001C071DF682F81E0AFDEFFEF8F1A9F0ACA
:10105000E0CFEF920F93282F8F7330E6839FC0016C
:1010600011248F519D4F38E026FF38E43093100152
:101070001092000127FD08C02091100130E230934A
:1010800000012D5E2093100120E2E22E08E120E015
:10109000409100016091100156DF0F91EF9008958B
:1010A000EF920F93DC01262FFC016491319644915D
:1010B000319604913196E490E09100014E0F8091B9
:1010C0001001680FCD0104963EDF0F91EF90089557
:1010D00060E0E6CF0895EF920F9390913F019F5FFC
:1010E00090933F0140910401440F440F440F20E1CD
:1010F000829FC001112420E1E22E08E020E06091EF
:101100000F018F579A4F1FDF80910F01885F8093E7
:101110000F01A8950F91EF9008958F5CDCCF089593
:1011200080E2D9CF0895CF93C82F1C1614F0CF9129
:101130000895F6DFC150F9CF90913F0180E1891BFE
:10114000F2CF0895CF93C82FF7DF9091A5019F5F4D
:101150009093A501943068F083E08093A50181E02D
:10116000809342018091A5016C2F880F50DECF91B2
:10117000089510924201F6CFE5DFF0C4089554DEE1
:10118000DBDF52CE089556DED7DF54CE08958DE3CF
:10119000A2CF0895CF93DF93EC018991811103C011
:1011A000DF91CF91089597DFF8CFCF93DF93EC01D4
:1011B000FE018491982F9F7719F08DDF2196F8CF4B
:1011C000DF91CF910895CF93DF93EC01CE010E9480
:1011D0003B3E982F9F7719F07EDF2196F7CFDF9166
:1011E000CF910895EF920F93FC0104913196E49012
:1011F0000296A9DE0F91EF9008950F93CF93DF939E
:1012000000D000D0CDB7DEB781EA91E0DCDF4091BD
:1012100089014D3FACF48091770190917801A091C4
:101220007901B0917A0103E026E4BC01CD0130D10F
:101230000F900F900F900F90DF91CF910F91089525
:101240008FE349DFF5CF90911D019F70923071F4CB
:1012500093DF82E890E0B7DFE0914001F091410137
:1012600022E044E06FEF84819581F6C1089597FFF5
:1012700009C08F939F938DE22EDF9F918F91909560
:1012800081959F4F65E271E04AE050E00E94083E80
:1012900081CF0895ECDF01C0EADF42CF0895EF92DD
:1012A000FF920F931F93182F062FF42E83E891E0DF
:1012B0008ADFEE24E0914001F09141018685E81635
:1012C00011F4812F09C08485E81611F4802F04C021
:1012D0008585E81611F48F2DFEDEE3948E2D833084
:1012E00049F71F910F91FF90EF900895EF92FF92B1
:1012F0000F931F93182F062FF42E80E03DDF89E80F
:1013000091E061DFEE248E2D08DF41DFE0914001A6
:10131000F09141018685E81611F4812F09C084857A
:10132000E81611F4802F04C08585E81611F48F2D7E
:10133000D2DEF6DEE3948E2D833029F71F910F91D4
:10134000FF90EF900895682F80E092E0662309F403
:1013500091E0623009F481E008950F93CF93DF9319
:1013600000D000D0CDB7DEB724E0829FF001112479
:10137000EA55FE4F208131814281538129833A838E
:101380004B835C832436310541055105B0F49091BF
:10139000020197FD12C0D7DF682F892F0E94BB255D
:1013A00023E044E06EEF58D1BBDE0F900F900F901A
:1013B0000F90DF91CF910F91089504E024E04FEF5B
:1013C00069817A818B819C8163D0EECF863058F41D
:1013D000E9E9F1E0E80FF11DE80FF11D808191814D
:1013E00063E05AD19DCE08951F93182F8091730109
:1013F000882319F095DE80E06EDE1CDD8AE791E03F
:10140000E2DE812F82958F70E1DF812F8F70DEDF2A
:101410001F9108958091110182958F7019D080914C
:10142000110183701CD080911101DECF0895EDE889
:10143000F1E0E80FF11D0895CF93F9DF9081C681A7
:10144000C91710F405D001C013D06ADECF910895FA
:10145000EEDF8F93808161DE8F9101C008958F93BD
:1014600088E491E0B0DE8F91E2DF868156CE089568
:10147000DEDF8F93868151DE8F9101C008958F93B7
:1014800084E491E0A0DE8F91D2DF808146CE089582
:10149000A2E1B0E0EEE4FAE00C94AA3D942EB22E64
:1014A000A02E6B017C010F7080E389838A838B837C
:1014B0008C838D838E83F7FE3CC08DE20CDEF0942E
:1014C000E094D094C094C11CD11CE11CF11C48EEE6
:1014D000442E43E0542E612C712C033009F442C099
:1014E00030E1432E37E2532E612C712C0430D1F1C0
:1014F00020EA422E26E8522E66246394712C053091
:1015000089F190E4492E92E4592E9FE0692E712CC6
:10151000063041F154E6452E512C612C712C0730D8
:1015200009F580E8482E86E9582E88E9682E712C46
:1015300019C0A5FECCCF8BE2CEDDC9CFD701C60145
:101540000596A11DB11D8F87988BA98BBA8BBC0105
:10155000CD012AE030E040E050E00E94853C690186
:101560007A019394C414D504E604F70438F711E122
:10157000190D8BEA189F112D1124169526E02919B3
:10158000289F812D1124782E76948E7F870D722EC0
:10159000781A4E0197E0890E911C2AE0A401C70138
:1015A000B6010E94E73DF40101900020E9F7319770
:1015B0007F01E818F908DE2C872D90E004968E153F
:1015C0009F051CF41F5FA3E07A0E812F90E0865CDC
:1015D0009F4F0E943B3E982E8A2D8071A4FE05C02D
:1015E000802F8E19D01608F080E00E2D0719080FF5
:1015F000101624F08EE26FDD872D8E19711001C058
:1016000008EFA12CC82ED12CEC0CFD1C002E000CD8
:10161000110BEA2DF0E0EE15FF0564F0992011F0B2
:10162000892D59DDBB2011F08B2D55DD6296E0E14F
:101630000C94C63D3696EC19FD0981E090E08C0FC4
:101640009D1FE80FF91F808146DDA394A0161106A7
:1016500001F78EE240DDDDCFCF92DF92EF92FF9275
:101660000F93CF93DF9300D000D0CDB7DEB7022F1A
:101670006C01F12CE12C242F462FC701B60108DFA5
:101680000F900F900F900F90DF91CF910F91FF90DF
:10169000EF90DF90CF9008950F93CF93DF9300D01A
:1016A00000D0CDB7DEB7062F9C0150E040E0298383
:1016B0003A834B835C8326E54DEF69817A818B8188
:1016C0009C81E6DE0F900F900F900F90DF91CF91ED
:1016D0000F9108950F93042F28E440E0D9DE8AE7A4
:1016E000FADC1EDD0F910895E82FF0E0EE0FFF1FEA
:1016F000E457FE4F8591949120910001420F209173
:101700001001620F20E06ECD0895CF93DF93C82FB4
:10171000D62FE0914001F091410148E16EE18685CC
:10172000E3DFE0914001F09141014D2F6C2F848562
:10173000DBDFE0914001F091410140E06EE1858501
:10174000D3DFDF91CF910895CF93DF93ABDB80ECB4
:1017500080DC62E084EA91E0A3DC80E87ADC89ED59
:1017600091E0B6DC60E085E052DB86E991E02BDDBC
:1017700068E085E04CDB8EE891E025DD88E99AE3BE
:10178000B4D190DB83E465DC83E063DC82EE91E03E
:101790009FDC61E082E03BDB8EE49DDC8DE29BDC44
:1017A00080EB91E010DD69E082E031DB80E593DCE5
:1017B0008DE291DC80EB91E006DD88E99AE395D13A
:1017C00071DB81EC46DC81E844DC8BE392E080DC79
:1017D00060E085E01CDB8EE47EDC8DE27CDC85E471
:1017E0007ADC8AEA91E0EFDC68E086E010DB80E5F5
:1017F00072DC8DE270DC85E46EDC8AEA91E0E3DC89
:1018000088E99AE372D14EDB81E423DC8FE292E037
:101810005FDC81E01EDC8BE092E05ADC60E081E07E
:10182000F6DA8EE458DC8DE256DC84E454DC8AEA95
:1018300091E0C9DC68E082E0EADA80E54CDC8DE228
:101840004ADC84E448DC8AEA91E0BDDC88E99AE37A
:101850004CD128DB82ECFDDB82E8FBDB81E092E00F
:1018600037DC60E085E0D3DA8EE435DC8DE233DC12
:1018700085E431DC85EB91E0A6DC68E086E0C7DA40
:1018800080E529DC8DE227DC85E425DC85EB91E031
:101890009ADC88E99AE329D105DB82E4DADB8BEF75
:1018A00091E016DC82E0D5DB89EE91E011DC61E0AD
:1018B00081E0ADDA8EE40FDC8DE20DDC84E40BDC3C
:1018C00085EB91E080DC69E082E0A1DA80E503DC71
:1018D0008DE201DC84E4FFDB85EB91E074DC88E9D8
:1018E0009AE303D1DFDAA0DA89E291E06CDCA2DAD4
:1018F00084E291E068DCA5DA8CE691E064DCA8DAA9
:1019000088E491E060DC0CDC84E491E05CDCC0E025
:101910008C2F8F7061F4DC2FD295D37021F488E97D
:101920009AE3E3D0BFDA60E08D2F880F70DA80E2AF
:101930008C0FD1DBCF5FCF3559F788E99AE3D5D04B
:10194000B1DADF91CF910895089503D002D001D08C
:1019500000D000D003D002D001D000D000D003D0FE
:1019600002D001D000D000D0A89503D002D001D081
:1019700000D000D003D002D001D000D000D003D0DE
:1019800002D001D000D000D003D002D001D000D0CE
:1019900000D00000089590E0893C28F0885C48EC75
:1019A000849FC0011124009709F4089520918100BB
:1019B000277019F0D9DF0197F6CF8130910519F022
:1019C00002973CE803C03EE380E090E02091B20043
:1019D000230F2093B30042E04093700027E023BF21
:1019E000889526E023BF10927000A895DCCF8F93D6
:1019F00084E0D1DF07C08F9382E0CDDF03C08F93F7
:101A000081E0C9DF8F911F93182F106410937C0021
:101A1000E12FE07880913001E81759F0E093300130
:101A2000ADDF8FE980937A0083E083BF889582E001
:101A300083BF20E030E0A901E0E01FC08FE9809380
:101A40007A0083E083BF889582E083BF609178004D
:101A500070917900260F371F411D511DE43061F44C
:101A600080913201803041F084E02030380720F44A
:101A700017FD02C01068CACFEF5F80912F01E817F1
:101A8000E8F2609133017091340117FF04C0609156
:101A900031017091320180E090E00E94433C2FEFD1
:101AA00033E040E050E00E94853CB901CA0120913A
:101AB0002F0130E040E050E00E94853CC9011F91B9
:101AC00008959B01281B390B50F0C9010895BC01F2
:101AD00080913301909134016817790718F4861BBF
:101AE000970B089580E090E00895EF92FF920F9396
:101AF0001F93CF93DF93F82EE92EC5E64F9B1CC0B2
:101B0000CF2DDE2D15E500E0D7FD10C082E043DFCC
:101B1000110F4F9B1F5F1F731F3399F4011103C0F7
:101B2000CF2DDE2D04E00F5F083C78F0802FCDB77D
:101B3000DEB7E6E00C94D03D81E02DDFC150F1F638
:101B4000DFCF111102C00111F1CFA8951C161D069F
:101B5000DCF62A97C9F6CFEFDFEFD6CFCF937FD948
:101B6000C82F809142018823D1F0813051F4C330D5
:101B700041F46FE086E04BD98BE2ADDA6FE086E0AE
:101B800046D980E49FE1B1DFC33041F48091420146
:101B9000813021F460E086E03AD9CEDA69D9CF917C
:101BA000089584E693E00E943B3E382F85E693E05B
:101BB0000E943B3E20913701230F30913801381F9E
:101BC00020931A0130931B0183E0283E380720F050
:101BD000C901885E934002C080E090E062E370E05B
:101BE0000E945E3C683008F067E0E9E6F2E0E60F4C
:101BF000F11DE60FF11D459155912591359162E357
:101C0000681B421B530B649FC001659F900D1124FC
:101C1000499662E370E00E945E3C620F731F70930E
:101C200076016093750186E693E00E943B3E99271A
:101C300087FD90956091370170913801860F971F4D
:101C400090933201809331019093720180937101DE
:101C50000895CF93DF9324E130E0B9010E945E3C08
:101C6000DC01EBE7F2E0E60FF71FE60FF71FC59187
:101C7000D591459155914C1B5D0B4A9FC0014B9FDF
:101C8000900D5A9F900D1124B9010E945E3C6C0F7B
:101C90007D1FCB01DF91CF91089518951895409144
:101CA0001C01A0914001B0914101EDE8F1E030E06C
:101CB00020E0822F2417B0F451911C969C911C9720
:101CC000591719F05581951303C02F5F3F4FF1CF7E
:101CD000220F331FF901E756FE4F20813181293E43
:101CE000334008F084E1089510921E0110921C0107
:101CF00010926C011092520110921D0110923E013F
:101D000010927301E7E5F1E0108211821282E7E799
:101D1000F1E0108A82E0818B10920201178616860C
:101D2000148215821682178281EF838B0895B5D8AD
:101D30005E980EDE90E080E0D8CE08951F93CF939A
:101D4000DF93162F17B818B8E82FF0E0ED5AFD4FC3
:101D5000949195B9262F281BE20FF11D27FDFA95C6
:101D6000E491E92BE4B94FDEEC01812F4CDEAC01AC
:101D7000209133013091340136952795C90103979D
:101D8000BE01625E7F4F8617970778F4255E3F4F4E
:101D9000C217D30750F4BA01625E7F4F86179707C8
:101DA00020F481E04217530708F080E014B8DF9177
:101DB000CF911F910895CF9361E080E0BFDFC82FDE
:101DC00062E080E0BBDFC80F62E081E0B7DF8C0F2C
:101DD000CF910895A6E1B0E0E0EFFEE00C94A83DBD
:101DE000B82E10921E01807FB9F4E5DF833081F4B4
:101DF00059D883E792E0E7D91DD88FE36CD980EDFD
:101E000097E073DE8B30B0F44DD883E191E0DBD9FD
:101E10006696E2E10C94C43D06E910E043D882EEF8
:101E200091E0D1D9C8DF833009F069C01F5F143059
:101E300008F466C00E941A070E94BA208FEC90E056
:101E4000C2D960E08EE393E00E94483E60E08FE3F9
:101E500093E00E94483E60E08DE393E00E94483E9C
:101E600060E082E00E94BB256C019A83898361E077
:101E700082E00E94BB257C019C838B8360E081E033
:101E80000E94BB258C019E838D8323E040E26EEF90
:101E9000C601E2DB23E040E26EEFC701DDDB23E0B9
:101EA00044E06EEFC801D8DB2AE5C216D10424F065
:101EB00084E190E09A83898369818EE393E00E94B4
:101EC000483E8AE5E816F10424F084E190E09C8322
:101ED0008B836B818FE393E00E94483E0A351105A6
:101EE00024F084E190E09E838D836D818DE393E007
:101EF0000E94483E82E08093420130DE06C010E03E
:101F000088E249DD015009F089CF9B2D9F709F87A2
:101F1000913009F04DC0EE24E394F12C78EB872E3C
:101F200072ED972E77E4A72EB12C02E0E8E0DE2ECA
:101F3000F0E23F2EC12C1E2D52E2252E24D91FD9AE
:101F400084E5C9D8C7019ED9EBD8113009F0D5C1B5
:101F500082E091E038D964E08091370190913801B6
:101F60009BDB0E941A078DEF90E02DD980917501BF
:101F70009091760187D98EEB80932F0117B818B80E
:101F800014B815B888EE93E0B0DD143011F08B3042
:101F900020F4C39494E0C912D1CF88EE93E0A5DD7C
:101FA000AFEFEA1AFA0AB8E0EB16F10409F0C2CF73
:101FB00018E701DF811192C20E94520788EC90E07D
:101FC00002D923E044E06FEF809135019091360112
:101FD00043DB0E941A0781EC90E0F5D823E044E04F
:101FE0006FEF80913C0190913D0136DB82E0809360
:101FF0004201B4DD10921E010E9452078DEB90E069
:10200000E2D860E082E00E945F1D80907F019090A6
:102010008001A0908101B09082019C868B8661E056
:1020200082E00E945F1DC0907F01D0908001E0900F
:102030008101F0908201DE86CD8660E081E00E9421
:102040005F1D00917F01109180011E830D8362E06E
:1020500080E00E945F1D80917F01909180019C83B0
:102060008B8362E081E00E945F1D80917F019091EF
:1020700080019A87898761E080E00E945F1D8091DE
:102080007F01909180019A838983EF85E13009F087
:1020900031C2029698878F83C401FED8C601FCD84E
:1020A000C801110FAA0BBB0B8B8B9C8BAD8BBE8B0E
:1020B00003E026E444EFBC01CD01EAD98E010F5FB5
:1020C0001F4F6E019FE0C90ED11CF80181919191C3
:1020D0000A97853B9105D0F4EC15FD05B9F74DE560
:1020E000E42E43E0F42ED8016C910E5F1F4F6E5E1C
:1020F000C7010E94483EBFEFEB1AFB0A0C151D05F5
:1021000091F70E941A0786EC91E05DD882E08093F7
:10211000420124DD0E94A732EF85E13029F0809151
:102120003B01823009F0D0C00E94520780E00E943B
:102130008D088CE691E047D882E00E948D0882E30A
:1021400090E041D890E4E92EF12C2AE0822E912CE7
:10215000A12CB12C37EFD32EC7DD10921E0160E009
:1021600082E00E945F1D10918901209177013091DA
:1021700078014091790150917A01012F073F0CF4C9
:10218000C3C18D2D811B183F0CF080E0180F1093F8
:10219000890120937701309378014093790150931E
:1021A0007A01173F09F0B8C1205631094109510998
:1021B000203935454105510508F0AEC160918B01CC
:1021C00070918C01CB018B569F4F8B32914008F060
:1021D000A3C1F39484E08F1508F09FC184E693E0D7
:1021E0000E94563E0E9452078BE290E00E94E30854
:1021F00080918B0190918C013AD8D3DC18B881E0A2
:1022000087B980E284B982E0FEDB853D9340DCF74C
:1022100014B8109232011092310182E0F4DB8C018B
:1022200080917101909172019093320180933101FC
:1022300082E0E9DB6C01CC0CDD1C109232011092C3
:10224000310182E0E0DB4C01A0907101B09072019D
:10225000B0923201A09231010E941A0784E290E00C
:102260000E94E30886E693E00E943B3EF82ED801E8
:10227000A80DB91DAC19BD0995010E94D23C96016B
:102280000D2C000C440B550B0E94A73C13E01F0DB6
:10229000120F612F86E693E00E94483E812F012EA7
:1022A000000C990B0E9437097CDC82E0809342018C
:1022B00055DC10923B018DE593E00E943B3E682F78
:1022C00080E693E00E94483E89E180932F0180E000
:1022D0000E94D0350E94520783E191E00E94E308FA
:1022E0000E941A078AE592E00E94E30810921E01FC
:1022F00082E08093420132DC8BCD1230A1F5209137
:10230000330130913401A8E5BBE10E94C33C24ECC9
:1023100036E340E050E00E94A73C29013A0181E009
:1023200085B9A5E0A4B980E062DB9C0124193509D8
:102330003A83298381E184B980E059DB9C01241927
:1023400035093C832B8384E085B984E184B981E03D
:102350004EDB9C01241935093E832D8387EE90E0E6
:102360000E94E30835C0133041F505B9BAE0B4B9AD
:1023700080E03DDB20913301309134013695279583
:1023800038872F83821B930B9A83898324B880E03C
:102390002EDB2F813885821B930B9C838B83D5B8D2
:1023A000E8E2E4B981E023DB2F813885821B930BBF
:1023B0009E838D8389ED90E0D3CF1430E1F483E6E2
:1023C00092E00E94E308F7DC882311F0A2E0CA2E15
:1023D0000E941A0789819A810E9437090E949008F9
:1023E0008B819C810E9437090E9490088D819E817B
:1023F0000E943709C3CD153099F415B804B980E0AF
:10240000F6DA9A838983D4B881E0F1DA9C838B83EE
:1024100034B882E0ECDA9E838D8389EF90E0A0CF20
:10242000163039F504B905B980E0E1DA20913301BD
:1024300030913401821B930B9A838983D4B8D5B829
:1024400081E0D5DA2091330130913401821B930B66
:102450009C838B8334B835B882E0C9DA209133018C
:1024600030913401821B930B9E838D8385EF90E026
:1024700077CF173079F52091330130913401A8E5F9
:10248000BBE10E94C33CA50194010E94853C290147
:102490003A0105B9F3E0F4B980E0A9DA9C01241906
:1024A00035093A832983D5B82CE024B981E09FDA35
:1024B0009C01241935093C832B8335B880E384B90A
:1024C00082E095DA9C01241935093E832D8383ED42
:1024D00090E046CF113009F07BCF50CD0E94C30869
:1024E00083E692E00E94E30884E655DA115009F091
:1024F00060CD62CD20913B01223009F4CACD98878E
:102500008F8310923B01C8CDCA01B901A501940186
:102510000E94853C0F5F32CEF12C0E941A078091F9
:10252000770190917801A0917901B0917A0104E04E
:1025300026E440918901BC01CD010E94480A0E9415
:102540009C0888E228DAEA94E11006CEBDCE80919C
:102550003B0181110DC08DE593E00E943B3E61E09F
:10256000680F80E693E00E94483E81E080933B0143
:102570000895A5E0B0E0EFEBF2E10C94B23D6D837D
:10258000E82FF0E0EA5AFD4FE491E8B9E7B915B851
:102590008D81E82FF0E0ED5AFD4FE491E4B9EE0FA4
:1025A000E98308E813E178018D8121DA8C018981C2
:1025B00084B90E151F05B8F301151105E9F00E9445
:1025C00028078CE491E00E94E308D80120EA36E86D
:1025D00041E050E00E94D83C28E937EB40E050E071
:1025E0000E94853C69017A0122E041E467EFC6015F
:1025F00033D817B818B814B82596E8E00C94CE3D37
:10260000FC019C01261B370BCA0170E060E0A901A8
:10261000460F511D452F5527620F240F351FAC0162
:10262000470F511D452F5527780FDA01AA0FBB1F01
:102630008A0F9B1F4B3E20F4E217F30740F70895E3
:1026400090E080E00895A1E2B0E0E9E2F3E10C94CB
:10265000A83D88A3162F4987A895E62FF0E0ED5AEC
:10266000FD4F2491298F220F2D8F33969490E42FC4
:10267000F0E0ED5AFD4F0491B02EBB0C3396A490C0
:10268000E82FF0E0ED5AFD4F8490382D330F3A8F4C
:102690003396449149A305B9898D802B888F84B9DD
:1026A00047B948B9862FABD98D839E83802F8B295C
:1026B00085B9998D9B299C8B94B9812FA0D9298D9F
:1026C00024B9812F9CD91C0114B84DD915B8388D67
:1026D00034B9812F94D96D817E81F3D97C0197B86B
:1026E00018B8402F48294A8B45B944B988A187D9E1
:1026F000EED93C0115B837D985B888A180D9E7D97A
:102700006C0184B888A17BD9E2D92C01B601C30140
:10271000D8D99C01203281E0380730F490E2E916E4
:1027200091E0F90608F4E0C5EC0CFD1C8D819E815A
:10273000280F391FE216F30618F4DE82CD8212014B
:102740002091520180916C01820F9927991F029765
:102750004CF0213009F0C8C590914F01809169017A
:102760009813C2C59B2D98299A872D813E812437C5
:10277000310508F495C1C9010A96880F991F2816DA
:10278000390608F08DC139A137B938B94C8944B937
:10279000812F31D97C01898536D96C01B5B8812F5B
:1027A0002AD99701295A3D4F18B897B828173907E1
:1027B00008F0B1C08A8584B985B989851CD9883467
:1027C0009F4008F468C085E080931E0182E28093F8
:1027D0001D01F0924801E0924701B601C7017CD982
:1027E00090934E0180934D019701A0E1B7E20E94C2
:1027F000C33C6D837E838F8398872091180130912D
:10280000190150E040E00E94853C30934A0120933A
:1028100049018D8D8B2984B915B839A137B938B9DB
:102820008985F1D8F82E092F812FE5D86F2D702FCB
:1028300053D980934B0190934C0120911D012F702F
:10284000243071F118B8A928A7B884B84A8945B9C5
:1028500088A1D5D8082F99833AD97C01812FD3D864
:10286000BC01C0901F01D0902001802F998134D9E4
:102870009601DC010E94C33C970150E040E00E94B9
:10288000853C3093480120934701809152018F5F2E
:1028900080935201A9C385E080931E0184E297CF03
:1028A0004091490150914A0160914D0170914E0152
:1028B000A7DE9C01892B21F1B4B889A1892987B9A8
:1028C000812F99D8082F998317B8282F3981A0E133
:1028D000B7E20E94C33C6D837E838F8398872091EB
:1028E0003C0130913D0150E040E00E94853CA9014F
:1028F000602F798180914B0190914C0181DE9C0188
:10290000309348012093470180911D018F708430DE
:1029100009F4BBCF97CF9A8594B995B988A16BD8A4
:102920007C01898570D86C0185B888A164D8895AE2
:102930009D4F8E159F0508F0D7C429A128B927B946
:10294000898559D8813D934008F065C085E0809322
:102950001E0182E380931D01B701C601BDD890938B
:10296000680180936701C701B2D89C01A0E1B7E27A
:102970000E94C33C6D837E838F83988720911F01C3
:102980003091200150E040E00E94853C309364018A
:102990002093630118B897B88A8D8B2984B985B9BB
:1029A00088A131D8F82E092F898525D86F2D702F51
:1029B00093D8809365019093660120911D012F703B
:1029C000243071F149A14A2948B947B915B88A8913
:1029D00084B988A114D8082F9983812F14D87C0139
:1029E000C0901801D0901901BC01802F998174D832
:1029F0009601DC010E94C33C970150E040E00E9438
:102A0000853C309362012093610180916C018F5F5E
:102A100080936C01C4C085E080931E0184E39ACF4B
:102A20004091630150916401609167017091680168
:102A3000E7DD9C01892B49F1B5B8B4B899A198B9E3
:102A4000E92FE929E7B988A10E94FB0C40D8F82EAC
:102A5000092F17B8282F392FA0E1B7E20E94C33CF5
:102A60006D837E838F839887209135013091360165
:102A700050E040E00E94853CA9016F2D702F8091AD
:102A8000650190916601BCDD9C0130936201209349
:102A9000610180911D018F70843009F4B6CF92CF0F
:102AA00018B897B885B82A8524B988A10E94FF0C68
:102AB0008B8F9C8F0CD86C0189850E94030D8983B4
:102AC0009A83C1018C599F4F9F8F8E8FB1018C15B6
:102AD0009D0508F076C0C6010E946C0D7C01209116
:102AE0001F013091200150E040E060E871EA83E08E
:102AF0009CE10E94853CD7010E94D83C6E877F876D
:102B0000888B998B89819A819C0150E040E06E8589
:102B10007F85888999890E94853C29013A0114B8EA
:102B200015B899A198B997B981E00E94CB0C288D6E
:102B300024B9812F0E94FF0C8F359D4008F497C166
:102B40004C8944B9812F0E94FB0C7C0189850E942D
:102B5000030D8E879F8788A10E94030D8E8B9F8B0C
:102B60008E859F85813D974008F409C1B5B8812FB6
:102B70000E94FB0C8115944008F441C080911E0115
:102B80008430E8F58AE080931E016E857F858E890A
:102B90009F890E946C0D909362018093610181E096
:102BA00090916C019F5F90936C01882309F456C447
:102BB00049854093690110936A0188A180936B0154
:102BC0004DC4C6010E946C0D7C019A8994B988A1FC
:102BD0000E94FF0C8B8F9C8F0E94670D6C01898572
:102BE0000E94030D89839A8369817A81C7010E94BB
:102BF0006C0D9C01A4E6B0E00E94C33C7FCF84E052
:102C000080931E018DE080931D012E143F0408F077
:102C1000ADC0C701821993099B878A8780901801EC
:102C200090901901B12CA12C60E871EA83E09CE13D
:102C3000A50194010E94853CAA85BB850E94D83CD1
:102C40006A877B878C879D878E859F859C0150E056
:102C500040E06A857B858C859D850E94853C8091BE
:102C60006C01882371F080915D0190915E01A091CB
:102C70005F01B091600182179307A407B50708F0C0
:102C800078C020935D0130935E0140935F015093C3
:102C900060019701A0E1B7E20E94C33CA501940145
:102CA0000E94853C30936401209363016E857F858B
:102CB0008E899F890E946C0D9093620180936101BF
:102CC00081E040915D0150915E0160915F017091E2
:102CD0006001441555056605770508F04CC0409223
:102CE0005D0150925E0160925F01709260016981A6
:102CF0007A818B8D9C8D0E946C0D909362018093E4
:102D000061019601A0E1B7E20E94C33C20911F013E
:102D10003091200150E040E00E94853C205F384D1A
:102D20003093640120936301C0901801D090190181
:102D3000F12CE12C9101A0E1B7E20E94C33CA70174
:102D400096010E94853C30936601209365012D8198
:102D50003E81A0E1B7E20E94C33CA70196010E9418
:102D6000853C309368012093670119CFFB86EA8682
:102D700055CF80E0A6CF882309F412CFD5CF91E6B6
:102D80002916310408F073C021EDE21627E0F2069F
:102D900008F46DC085E080931E0182E180931D01DF
:102DA000C70186509F4F2E893F898217930708F0ED
:102DB00043C083E180931D01392D3770932E89859F
:102DC000806480937C004BE04983CC24C394D12C55
:102DD000EE24EA94B3E0FB2EA89561E0802F7DD528
:102DE0008C8984B986B18921E9F3998D94B9809150
:102DF0007A00806480937A0080917A0086FDFCCF0F
:102E000080917800909179009701281B390BC20EB0
:102E1000D31E3981315039833111DECFC601880F7D
:102E2000991F880F991F69E070E00E945E3C7093C3
:102E3000680160936701E9CDC0901801D090190135
:102E4000B7018E899F890E946C0D9601DC010E945A
:102E5000C33C6D837E838F839887970150E040E069
:102E60000E94853C3093620120936101A5CF4C897B
:102E700044B9B5B8812F0E94FF0C5C0189850E947E
:102E8000030D8E879E8B0E94670D7C018E8D9F8D1A
:102E90008A159B0508F0AAC0B101C5010E946C0DFE
:102EA0006C01209118013091190150E040E060E878
:102EB00071EA83E09CE10E94853CD6010E94D83CE7
:102EC00069837A838B839C83970150E040E00E9462
:102ED000853C29013A0197B818B82A8924B925B93F
:102EE00088A10E94FF0C6C0189850E94030D888FC8
:102EF0009B8F812F0E94030D7C0130E3C31631E1CB
:102F0000D30608F0EFC185B888A10E94FF0C898321
:102F10009A8384B888A10E94FF0C8C8B9D8B15B876
:102F200081E00E94CB0C85B888A10E94FF0C9C0117
:102F30008C899D898034964008F076C021333141D8
:102F400008F472C0C6018A569F4F29813A8128171A
:102F5000390708F069C086E080931E018091520114
:102F60008F5F80935201B701888D9B8D0E946C0DFD
:102F70009093480180934701B701C6010E946C0DF0
:102F800090934E0180934D0114B815B898B881E024
:102F90000E94CB0C84B888A10E94FF0C853F91054C
:102FA00018F53A8934B989850E94FF0C813D934018
:102FB000D8F088A10E94030D8D3D9240A8F084B8FE
:102FC00088A10E94FF0C8D3D924070F085B881E091
:102FD0000E94CB0C15B888A10E94FF0C853F91057B
:102FE00018F487E080931E0181E0FBC0988D94B9AE
:102FF00005B9812F0E94FF0C5C0189850E94030D99
:103000008E879E8B0E94670D7C01C5012A143B04AC
:1030100010F482199309B7010E946C0D9C01A4E67B
:10302000B0E00E94C33C4CCF97B804B905B981E029
:103030000E94CB0C4A8544B945B988A10E94FF0C77
:103040006C010E94670D7C0189850E94030D8C8BA9
:10305000988F0E94670D8A8B9B8B812F0E94030D96
:1030600089839A838A899B898E3F994008F4CAC0D4
:1030700084E080931E018CE080931D01B101C701A3
:103080000E946C0D6C0120911F013091200150E0D5
:1030900040E060E871EA83E09CE10E94853CD60153
:1030A0000E94D83C6A877B878C879D878A899B8909
:1030B0009C0150E040E06A857B858C859D850E945F
:1030C000853C80915201882371F080914301909159
:1030D0004401A0914501B091460182179307A407CE
:1030E000B50708F07AC02093430130934401409320
:1030F00045015093460169817A818C89988D0E949F
:103100006C0D90934801809347019701A0E1B7E2CD
:103110000E94C33C20911F013091200150E040E00B
:103120000E94853C30934A012093490181E04091FF
:10313000430150914401609145017091460144154D
:1031400055056605770508F04AC040924301509244
:1031500044016092450170924601B5018E859E89B9
:103160000E946C0D90934801809347019501A0E166
:10317000B7E20E94C33C209118013091190150E040
:1031800040E00E94853C205F384D30934A012093F7
:1031900049019101A0E1B7E20E94C33C20911801CE
:1031A0003091190150E040E00E94853C30934C0181
:1031B00020934B012D813E81A0E1B7E20E94C33CE8
:1031C00020911F013091200150E040E00E94853C99
:1031D00030934E0120934D0107CF80E0A8CF81119D
:1031E000D8CF909152019F5F90935201882309F4A8
:1031F00035C1998590934F0128A1209350011093D8
:1032000051012CC191E62916310408F06BC029E464
:10321000E2162DE0F20608F465C085E080931E01F9
:1032200082E080931D0189819A8186509F4F8C1581
:103230009D0508F03CC083E080931D0139A13770E3
:10324000D32E8985806480937C004BE04983EE24F3
:10325000E394F12CA89560E0802F3FD38A8584B950
:1032600085B986B18D21E9F784B880917A008064B0
:1032700080937A0080917A0086FDFCCF809178005F
:1032800090917900E80EF91E9981915099839111DE
:10329000E1CFC701880F991F880F991F69E070E07F
:1032A0000E945E3C70934E0160934D01EECA6090A7
:1032B0001F017090200169817A81C6010E946C0D06
:1032C0009301DC010E94C33C6D837E838F839887CA
:1032D000970150E040E00E94853C309348012093E4
:1032E0004701ACCF17B818B814B815B817B827EC01
:1032F000221621E0320608F4D4C018B83A8D34B949
:1033000068ECF62EE9A0E928E7B881E00E94CB0C32
:1033100097B888A10E94030D429718F0FA94F11013
:10332000F3CF4A8D44B945B961E0802FD6D288A148
:103330000E94FF0C3C018D8D84B915B899A197B9F5
:1033400098B960E0802FC9D2812F0E94FF0C0E94A3
:10335000670D7C01298D24B9812F0E94030D6C011A
:1033600088A10E94FF0CB6010E946C0D6C01812F98
:103370000E94030D5C0188A10E94FF0CB5010E9410
:103380006C0D96012C5E3F4F2817390708F466C074
:1033900018B897B884B885B861E0802F9ED2812F85
:1033A0000E94030D5C0188A10E94FF0CB5010E94E0
:1033B0006C0D5C01C816D90608F05BC03A8D34B9B3
:1033C00035B988A10E94FF0C9C017301E8ECF0E084
:1033D00098E4E91696E0F90630F4F70153E0F69523
:1033E000E7955A95E1F748EEA41643E0B40608F0D5
:1033F00051C0C50164E670E00E945E3CC50187597A
:1034000091098938914108F04CC02A153B0508F014
:1034100048C0EE0DFF1DEA15FB0508F042C06E1511
:103420007F0508F03EC080911E01833018F483E0D0
:1034300080931E0120911C01822F90E0FC01E35734
:10344000FE4F38A130831683880F991FFC01E75681
:10345000FE4FB182A0822F5F20931C0117B818B8CD
:1034600014B815B88EE20E946B08A196E2E10C94A4
:10347000C43D4D8D44B915B889A187B988B960E0BC
:10348000802F2BD2812F0E94FF0C0E94670D9C0180
:1034900056019CCFB50144E0769567954A95E1F7D2
:1034A000ADCF612F88A101D0D9CFA6E0B0E0EBE588
:1034B000FAE10C94AA3D8D836E83A8952E81822F0C
:1034C00090E0FC01ED5AFD4F5490339624913D81DC
:1034D000432F50E0FA01ED5AFD4FD4903396B4904B
:1034E00060916C0130915201630F7727771F672B32
:1034F00009F065C0A8956091220170912301660FC3
:10350000771F660F771F70933401609333016091CA
:10351000710170917201660F771F660F771F7093AC
:103520003201609331013EEB30932F0130911C0149
:10353000EDE8F1E0DF01480F591F9A2F9E1B93170A
:1035400008F118B827B9D4B8D5B818E1C12EF12CB4
:10355000E12C8E810E94FF0C782E692E87018D81CF
:103560000E94030D7C01801B910B97FF03C0919576
:103570008195910903970CF481C1A895CA94C11053
:10358000E8CF0AC08D9115966C911597680F772733
:10359000771F6417750789F68091220190912301A6
:1035A0009093340180933301809171019091720165
:1035B000909332018093310189E180932F01269607
:1035C000E0E10C94C63D85E8C81681E0D80620F7F6
:1035D000043AA2E01A0708F0BBC0B8E9AB16B10480
:1035E000D8F2C6010E94670DAC019601A8E9B7EBBD
:1035F0000E94C33C9A0150E040E00E94853C2901B2
:103600003A01C5010E94670D9C01A8E9B7EB0E9431
:10361000C33C950150E040E00E94853C88E7C81615
:103620008FE0D80608F078C0A2E0440C551C661C58
:10363000771CAA95D1F7D301C201820F931FA41F53
:10364000B51FBC01CD0125E030E040E050E00E9414
:10365000853CA4E6B0E00E94D83C69837A838B83E2
:103660009C836B017C019CEAC90E9DE0D91EE11C84
:10367000F11C10911E01143008F08ECF9D819150E5
:10368000AE81A90FAD832A2F30E0F901E95AFE4F30
:103690008081220F331F220F331F2A553E4FD9013D
:1036A000882309F4D0C08D909D90AD90BC90A70167
:1036B0009601281939094A095B0957FF07C0509537
:1036C0004095309521953F4F4F4F5F4FAAE0B0E0B6
:1036D0000E94D83CB4E68B0E911CA11CB11CC80CF6
:1036E000D91CEA1CFB1C6C157D058E059F0508F096
:1036F00053CF133019F081E080931E0182E0808364
:1037000080917301E82FF0E0E65AFE4F2D8120836F
:103710008F5F8093730140CF98E7A9169FE0B906A9
:1037200070F4F2E0220F331F441F551FFA95D1F7B2
:10373000DA01C901840D951DA61DB71D82CF240D88
:10374000351D461D571D569547953795279581CFB1
:10375000C0901F01D0902001672D762DE616F70648
:1037600008F4B701C7010E946C0D9601DC010E94AC
:10377000C33C69837A838B839C83C7010E94670D56
:103780009C0150E040E069817A818B819C810E949C
:10379000853C29013A01A0901801B0901901892DAA
:1037A000982D8017910708F4C801B8010E946C0D8C
:1037B0009501DC010E94C33C69837A838B839C83DF
:1037C000980150E040E00E94853CA8E7EA16AFE08F
:1037D000FA06E0F472E0440C551C661C771C7A95DE
:1037E000D1F7D301C201820F931FA41FB51F898394
:1037F0009A83AB83BC83BC01CD0125E030E040E07F
:1038000050E00E94853C69017A0133CF08379FE080
:10381000190770F462E0220F331F441F551F6A9589
:10382000D1F7DA01C901840D951DA61DB71DDFCFA3
:1038300073016201C20ED31EE41EF51EF694E794D6
:10384000D794C79416CFCD92DD92ED92FC92139748
:1038500081E08083A1CE550C54B88E810E94FF0C6C
:103860005C01B0ECEB16B4E4FB0608F4ACCE90EBD4
:10387000C9169DE4D90608F08FCEAACEDD0C15B886
:10388000D4B88D810E94FF0C8135910508F084CE5B
:10389000D5B88D810E94FF0C6C01B7B8B8B815B8C7
:1038A00054B8B8E14B2E10E000E08D810E94FF0C6F
:1038B000982E892E58018E810E94030D8C018A1941
:1038C0009B0997FF03C091958195910903971CF27D
:1038D000A8954A944110E9CF5FCECF93C82FC095E9
:1038E00095B160FF10C0982B95B994B1892B84B91C
:1038F00082E00E94CB0C84B18C2384B985B18C23E7
:1039000085B9CF9108959C23EFCFB0E0A0E0EBE81C
:10391000FCE10C94B13D8AE0D82E9FE3B92E29E05A
:10392000C22E17B818B815B8B4B880E00E94FF0CC2
:103930008C0181E00E94030DEC0182E00E94030DE6
:103940009C0180911E01893099F417B814B8109326
:10395000060100930501D0930801C093070130933D
:103960000A0120930901CDB7DEB7E9E00C94CD3D03
:103970000430110550F4C430D10508F04CC0243097
:10398000310518F381E0826008C081E0083E1340F1
:1039900008F080E0C83ED340B0F3283E334008F43E
:1039A000846087B9D0E0C0E0A89580E00E94F70C61
:1039B0007C0181E00E94030D8C0182E00E94030DD6
:1039C0009C0184E1E81685E0F80608F4389A043191
:1039D00095E0190708F4399A243185E0380708F48E
:1039E0003A9A96E0E916F10430F40630110518F41D
:1039F0002630310538F02196C43F81E0D807A1F682
:103A0000C0921E0110E000E00C171D0731F4DA949B
:103A1000D11087CFA8CF81E0BDCF0E94B90C0F5F36
:103A20001F4FF2CFCF92DF92EF92FF92CF93DF93AF
:103A300000D000D0CDB7DEB720917701309178016A
:103A40004091790150917A018091890189838AE0BE
:103A5000C82ED12CE12CF12C8981982F9F5F99835E
:103A6000213A96E8390791E04907510508F5809316
:103A70008901A0913301B09134010E94D83C28E81B
:103A800033E140E050E00E94853C20937701309381
:103A900078014093790150937A010F900F900F9025
:103AA0000F90DF91CF91FF90EF90DF90CF9008952E
:103AB000CA01B901A70196010E94853CCDCFA6E0BD
:103AC000B0E0E5E6FDE10C94B03D8D83B62E880FA5
:103AD0002D81820F9FEF960F890F80935401E22F63
:103AE000F0E0ED5AFD4F44914E83862F90E0FC01AB
:103AF000ED5AFD4F1491FC01EA5AFD4FA4908091BC
:103B00001E0190911C012DE831E0D9018130C1F4F2
:103B10002696EAE00C94CC3D16968C9116978B1164
:103B20000EC08C914D8184130AC0FD01EE0FFF1F62
:103B3000ED58F140448555854C3D554048F311966C
:103B40008A2F821B891740F31092840110928301FF
:103B500081EF809389011092770110927801109281
:103B6000790110927A01D1DE18B8A7B814B915B945
:103B70008D810E94030D8C018B2D0E94030D14B8C2
:103B800010925601109255016C01C01AD10A809111
:103B9000550190915601843F914028F017B818B80C
:103BA00014B815B8B5CF9E8195B994B90E94B30CDD
:103BB00014B815B80E94BA0CA8958D810E94030D07
:103BC0007C01EC0CFD1C80915501909156018E37C3
:103BD000910520F0ABE4EA16F10404F3BDE2EB1624
:103BE000B1E0FB060CF037C280915501909156016F
:103BF00001969093560180935501C9CFC70145E1C5
:103C0000E41645E0F4060CF443C17FDE15B887E006
:103C100087B918B8FE80FF0CF4B880E480937B006D
:103C200084E580BF8D81806480937C0087E18093F0
:103C30007A000E94BD0C109256011092550110920C
:103C40008000109285001092840087E286BB81E29A
:103C500080936F0081E080937401F5B890911E010C
:103C6000953009F0D8C18093810081E090E00D800B
:103C700002C0880F991F0A94E2F78095877087B970
:103C8000F89483B7817F83BF80917401882389F082
:103C900083B7816083BF7894889583B78E7F83BF15
:103CA000F894A895809155019091560180389C40D8
:103CB00059F7789410928100E0908600F090870088
:103CC00010926F0087E980937A0014B815B88D813F
:103CD0000E94030D2091370130913801821B930B14
:103CE0000C9690938C0180938B018091550190915B
:103CF00056018034964008F051CF80915501909143
:103D000056019093820180938101F0928001E092AC
:103D10007F0184EF80938901809155019091560134
:103D200082349105D8F080917F0190918001A0911B
:103D30008101B0918201BC01CD0124E630E040E078
:103D400050E00E94853C20937F0130938001409396
:103D500081015093820186EF80938901A0917501C2
:103D6000B091760120917F013091800140918101D5
:103D7000509182010E94D83C20E436E040E050E0BF
:103D80000E94853C20937F01309380014093810104
:103D90005093820120937701309378014093790109
:103DA00050937A013FDE80918901843F09F056C02B
:103DB000C0907701D0907801E0907901F0907A017D
:103DC00090EAC9169FE0D906E104F104C0F4A70106
:103DD00096012C543F4F4F4F5F4F60EA7FE080E0E9
:103DE00090E00E94853CC20ED31EE41EF51EC092D8
:103DF0007701D0927801E0927901F0927A01C09037
:103E00007701D0907801E0907901F0907A01C114A7
:103E1000D104A1E0EA06F10408F001C1D092B70193
:103E2000C092B6018091540190E0835A9C4F0E9449
:103E30003B3E90E0B0E0A0E08C159D05AE05BF05CF
:103E400008F0F4C0C81AD90AEA0AFB0AC09277013E
:103E5000D0927801E0927901F0927A014E8144B9D2
:103E60008091770190917801A0917901B0917A01C8
:103E70004997A105B10508F085C090CE0E94B40C09
:103E80008D810E94030D8C0D9D1DA8950F5F1F4F06
:103E900020915501309156012017310778F76701BD
:103EA000C81AD90A1C141D040CF0B2C089ECC8163B
:103EB000D1040CF073CE28EE33E0D6010E94D23C40
:103EC00069837A838B839C8397010F2C000C440BAE
:103ED000550B0E94853C89018091550190915601B6
:103EE0000196B0E0A0E080937F0190938001A093C1
:103EF0008101B0938201C7018C0D9D1DFCD02091E2
:103F00007F01309180014091810150918201DC015B
:103F10000E94D83C60937701709378018093790177
:103F200090937A0160937F01709380018093810167
:103F30009093820187EF8093890174DDC0907701AF
:103F4000D0907801E0907901F0907A0180E493E0DC
:103F50000E943B3EA8EEB3E0A81BB10987FDB395D4
:103F6000A70196010E94E23C24E630E040E050E0E8
:103F70000E94853C2093770130937801409379012A
:103F800050937A0180911C01882329F080911E01B1
:103F9000853009F003CE88E080931E01809189016D
:103FA00090918A019817C4F08913F8CDC0907701D9
:103FB000D0907801E0907901F0907A0140917B01F6
:103FC00050917C0160917D0170917E014C155D05E1
:103FD0006E057F0508F0E2CD4091770150917801A0
:103FE0006091790170917A0140937B0150937C013B
:103FF00060937D0170937E0180938A011093860106
:1040000000938501B09287018D8180938801C6CD90
:1040100010E000E061CF80938100A7B831CE81E04D
:1040200090E09093B7018093B601FCCE24E1C20EDC
:10403000D11CE11CF11CC816D906EA06FB0610F4D7
:104040000E94A712109277011092780110927901C4
:1040500010927A0103CF009155011091560101157C
:10406000110509F4CBCDC70110E000E011CF1F927C
:104070001FB61F9211248F939F93B59904C080910E
:104080007401811109C0B59B10C080918600909188
:1040900087008A3F910548F480915501909156011F
:1040A000019690935601809355019F918F911F9097
:1040B0001FBE1F9018951F921FB61F9211248F9339
:1040C0009F9310927401B09B10C0809186009091D4
:1040D00087008A3F910548F48091550190915601DF
:1040E000019690935601809355019F918F911F9057
:1040F0001FBE1F9018950F9221E08C32920710F48A
:104100008CE291E08C52914069E170E00E945E3C4B
:1041100099E16B3210F0982F6BE2981BE1EEF2E020
:10412000E60FF11DE60FF11D9F93CF010E943B3E6C
:10413000482F3196CF010E943B3E582F3196CF0138
:104140000E943B3E282F3196CF010E943B3E382FE4
:104150006F91421B530B649FC001659F900D11240A
:104160000C9669E170E00E945E3C620F731FCB0108
:104170000F900895A6E0B0E0E0ECF0E20C94AE3DC4
:1041800088E893E190932301809322019093340176
:10419000809333018EEB80932F0118B880E187B9AB
:1041A0000E94C20C17B884E00E94FF0CAC018B5C2B
:1041B0009840833F9140A0F481E080933E0120919C
:1041C000330130913401AFEBB9E00E94C33C9A0156
:1041D00050E040E00E94853C30932301209322016F
:1041E00080912201909123019093340180933301B7
:1041F0008EE00E94030D8EE00E94FF0C9093380128
:10420000809337010E94D10D80DB18B831E037B9B7
:1042100085E185B934B980E00E94FF0C8C0182E011
:10422000E82EE7B894E0F92EF4B881E00E94FF0C84
:10423000080F191FF7B820E1D22ED4B882E00E94EF
:10424000FF0C080F191F15B881E088B987B984B928
:1042500080E00E94FF0C0E94670D89839A83E8B872
:10426000E7B8F4B881E00E94FF0C0E94670D298135
:104270003A81280F391F3A832983F8B8F7B8D4B8A0
:1042800082E00E94FF0C0E94670D29813A81280F6D
:10429000391F3E832D8317B818B814B880913301A5
:1042A000909134016C01CC0CDD1CC80ED91EC901E3
:1042B000800F911FC81AD90AF12CE12C9801A0E9AE
:1042C000BAE10E94C33CA70196010E94853C4901C6
:1042D0005A0130933D0120933C012D813E81A0E99C
:1042E000BAE10E94C33CA70196010E94853C30932D
:1042F0003601209335012057354E3093200120930D
:104300001F0130E7831A35EE930A909219018092CB
:10431000180189E180932F012696ECE00C94CA3DA8
:10432000A5E0B0E0E6E9F1E20C94B23D8D8369834B
:10433000142F0E948D0889E291E00E94E308CED1FB
:1043400069818D810E943534C090BA01D090BB0143
:10435000E090BC01F090BD018091020187FD05C095
:10436000C114D104E104F10421F085E291E00E943E
:10437000E30889810E948D08C114D104E104F1048D
:1043800031F00E94900880915A010E94AD091123DA
:1043900051F080913F018D3030F48650990B89594E
:1043A0009C4F0E94E30880E00E94BC08C114D10425
:1043B000E104F10409F44BC08091BA019091BB0172
:1043C000A091BC01B091BD0103E028E447EFBC011E
:1043D000CD010E94480A88E391E00E94E30882E749
:1043E00093E00E94433E23E046E464EF0E942C0BDE
:1043F0008091B2019091B301A091B401B091B50147
:10440000892B8A2B8B2B09F43FC080E00E94BC08CB
:104410008091B2019091B301A091B401B091B50126
:1044200004E028E440E0BC01CD010E94480A83E397
:1044300091E00E94E30823E040E26FEF8091B80131
:104440009091B9010E942C0B0E949C0824C080917D
:104450005A010E94AD09809102018E3F4CF680E521
:1044600091E00E94E30880910B0190910C01A091D2
:104470000D01B0910E0103E028E440910201BC015E
:10448000CD010E94480AB4CF80E00E94A20880912A
:1044900042018823C9F22596E8E00C94CE3D82E9DA
:1044A00090E00E941E2E0E94740E60E082E00E9446
:1044B000551A62E080E00E94551A0E94140780910C
:1044C0007301882369F041E062E080E029DF88EE33
:1044D00093E00E94750D882331F30C9452070895E0
:1044E00082E990E00E94E3088BE693E00E94E308F3
:1044F0000E941A078FE30E946B0880E00E94A208C6
:104500000E949C08E4CFA6E0B0E0E9E8F2E20C9457
:10451000B43D182F0E941407809187010E948D08D6
:104520008CE691E00E94E308CDD4609187018091F0
:10453000880121D38D839E838D819E8190938401F8
:1045400080938301E0908501F09086018A3F9F4F20
:1045500020F48AE291E00E94E308809188010E94A1
:104560008D08112309F448C090913F018DE0891B0B
:104570000E94930887E890E00E94E3080E941A07CF
:1045800080917B0190917C01A0917D01B0917E0191
:1045900004E026E440918A01BC01CD010E94480A52
:1045A000AD81BE81AA3FBF4F68F48BE591E00E94C8
:1045B000E30822E044E06EEF809183019091840152
:1045C0000E942C0B0E949C080E942107E114F10418
:1045D00069F084E591E00E94E30822E045E26FEF94
:1045E00080918501909186010E942C0B0E949C086D
:1045F0002696E6E00C94D03D0E949C08BFCF1F9306
:10460000CF93DF93C8E0D2EF1DE00E94740E60E00C
:1046100082E055DAC0931E0180918901843FE1F464
:104620008091770190917801A0917901B0917A0100
:1046300084369105A105B10578F440E060E082E0A0
:104640000E94B4316093770170937801809379016F
:1046500090937A01D093890180918901823F0CF176
:1046600080938A018091770190917801A0917901DE
:10467000B0917A0180937B0190937C01A0937D019E
:10468000B0937E0181E03FDF88EE93E00E94750DDC
:10469000882309F4BACF0E945207DF91CF911F916E
:1046A00008950E9414078BE890E00E94E30880912F
:1046B0003F01912F981B892F0E94930887E890E073
:1046C0000E94E3080E941A078FE30E946B080E9471
:1046D0009C080E9421070E949C08D6CFAEE1B0E062
:1046E000E4E7F3E20C94A83D82E08093020180911C
:1046F0001E01813009F0E9C180917301813009F018
:10470000E4C120905A0124E0229EF0011124EA55D0
:10471000FE4F408051806280738039E0431632E55D
:1047200053066104710408F0D0C100E0822D02300C
:1047300008F0CFC10E94A309182F792EE92FF0E0CD
:10474000EA5AFD4F349090E0FC01ED5AFD4FE491A0
:1047500015B818B8402F4170498B50EF45165104D9
:1047600008F0BDC14111BBC1A0901801B090190162
:10477000A0E9AA1AAAE1BA0A21E030E002C0220F99
:10478000331F8A95E2F7C901832987B984E1682E2E
:10479000812F0E94FB0C4C01872D0E94030D44E0E9
:1047A0008416910410F4049718F06A946110F0CF05
:1047B00050E450937B0084E580BF812F8064809318
:1047C0007C0097E190937A00F12CE12C109280000C
:1047D0001092850010928400A7E2A6BB0E94BD0C37
:1047E000202F30E03E8F2D8F398931117FC181E834
:1047F0008093810038B886B385FF81C118B81092C4
:10480000810050E256BB20918600309187006901FB
:1048100040918400509185002417350708F47DC12C
:1048200087E980937A00B4E13B2E812F0E94FB0C34
:104830004C01872D0E94030D44E08416910410F46E
:10484000049718F03A943110F0CFE0913C01F091C8
:104850003D01E40DF51DEA0DFB1D20911A0130917B
:104860001B0150E9A5165AE1B50608F05EC169E1E1
:1048700081EEC816D104E104F10430F4C60165E00C
:1048800070E00E945E3C645128523109261B3109B8
:1048900067FD339566E0862F90E0B0E0A0E08C15D0
:1048A0009D05AE05BF0508F049C1C81AD90AEA0A34
:1048B000FB0A9989992329F0AAE3CA0ED11CE11CAD
:1048C000F11CB0EAEB16F10418F0C12CD12C7601E2
:1048D0004BE0C416D104E104F10428F051E0C51AFC
:1048E000D108E108F1083F01912C812CA8EEB3E03A
:1048F0000E94C33C6D8B7E8B8F8B988FA091330170
:10490000B091340195010E94C33CA4019F010E9413
:10491000853C442755276D897E898F89988D0E9413
:10492000853CC9010E94290EFC01A4019301C70125
:10493000B6010E94433C6D8B7E8B8F8B988FCF018D
:10494000B0E0A0E074E0880F991FAA1FBB1F7A9502
:10495000D1F79C01AD012B5F3F4F4F4F5F4F298F28
:104960003A8F4B8F5C8FCA01B9012AE030E040E0FA
:1049700050E00E94853C442755276D897E898F89A8
:10498000988D0E94853CED8DFE8DEE0FFF1FEE0F82
:10499000FF1F81E090E08C0F9D1FE80FF91F20831F
:1049A0003183428353839989911118C0A4E1CA16B7
:1049B000D104E104F10490F00F5FED8DFE8D31968E
:1049C000EE0FFF1FEE0FFF1F81E090E08C0F9D1F89
:1049D000E80FF91F2083318342835383A8950F5F2B
:1049E000043008F4A3CE18B884E00E94CB0C91E008
:1049F0000D811E812F81388549815A816B817C818F
:104A0000401751076207730708F090E00D851E8577
:104A10002F85388949855A856B857C8583E04017C9
:104A200051076207730708F082E024E0829FD001FB
:104A3000112441E050E04C0F5D1FA40FB51FE92F7A
:104A4000F0E0EE0FFF1FEE0FFF1FE40FF51F0D91BB
:104A50001D912D913C914081518162817381041798
:104A600015072607370708F0892F54E0859FF001C6
:104A70001124A1E0B0E0AC0FBD1FEA0FFB1F408185
:104A800051816281738140930B0150930C016093BB
:104A90000D0170930E0180FD55C0B0EF4B1651040F
:104AA00008F050C08BEF8093020180910B01909130
:104AB0000C01A0910D01B0910E01892B8A2B8B2B3B
:104AC00011F41092020117B814B86E96E2E10C943A
:104AD000C43D0E94A3099827892798272DCEE4B9C1
:104AE00037B8A0901801B090190150CE38B80E9484
:104AF000C60C40E246BB81E8809381007CCE80FFFB
:104B00007ACE91E096BBA89597012F5F3F4F790130
:104B1000203A310509F06FCE71CE80FF81CEA1E041
:104B2000A6BBBFEFEB1AFB0A7BCECF0168E57BE1AA
:104B30000E945E3C695F285D3F4FADCEC12CD12CF9
:104B40007601B7CE8CEF80930201DB01CA01059696
:104B5000A11DB11DBC01CD012AE030E040E050E0D4
:104B60000E94853C20930B0130930C0140930D0172
:104B700050930E019ACFAEE1B0E0E1ECF5E20C9477
:104B8000A83D662EB82E860F898320911E012830FD
:104B900059F520917B0130917C0140917D0150912C
:104BA0007E0157FD15C010918A0109C0CA01B901E3
:104BB0002AE0312D412D512D0E94853C1F5F173F6A
:104BC000ACF391F4243160E036074105510518F447
:104BD0008FEF9FEF44C1173F39F480E028178DE72E
:104BE00038074105410510F020E03DE72C8B3D8B57
:104BF00027EDA22EE6E5F2E0E60DF11D859180603D
:104C00008E87E6E5F2E0EB0DF11D859180608F87E0
:104C1000E3E5F2E0E60DF11D7590E3E5F2E0EB0D62
:104C2000F11DC59090EC692AB92A81E0E82EF12C9B
:104C3000012D112D8E831F82188619861A861B86D8
:104C40001C861D86188E198E1B8E1A8E0E94851C3E
:104C500080E088B960927C000E94BE0C3F8537B925
:104C600075B874B855E05A95F1F7000014B815B846
:104C7000DD243E8537B975B874B860927C00A8957C
:104C8000A0927A0080917A0086FDFCCF2090780077
:104C900030907900B0927C004C2DE5D020917800C6
:104CA00030917900288B398B3F8537B9C5B8C4B8A6
:104CB000A895B0927C00A0927A0080917A0086FD3F
:104CC000FCCF609178007091790060927C00472D54
:104CD000CAD0409178005091790014B8CB01820D70
:104CE000931DE80EF91E011D111DEA82FB820C8343
:104CF0001D8388899989840F951F2E813F8168853E
:104D00007985280F391F611D711D2E833F836887A8
:104D1000798722E32417150650F075B874B80E94FD
:104D2000C80C14B815B8888D8395888F07C0483E85
:104D300073E0570718F08A8D83958A8F888999893F
:104D40002817190660F03E8537B9C5B8C4B80E9467
:104D5000C80C14B815B8898D8395898F07C0883E13
:104D600073E0970718F08B8D83958B8FD3945D2D0F
:104D70005F3F49F05F3731F45C2D550FC50E572D5D
:104D8000550F750E76CF40903C0150903D01440C7C
:104D9000551C9201E4E0240D351DEA95E1F7290147
:104DA000570168016E807F808884998420911E015C
:104DB0002830C1F46C897D89812D912D655070401A
:104DC000804090409B01AC010E94433C9B01AC01A0
:104DD00060E779E786E190E00E94853C621A730AF9
:104DE000840A950AA614B704C804D90428F46A18DA
:104DF0007B088C089D0803C0662477244301B20118
:104E000080E090E09301A4010E94433C9501A6013B
:104E10000E94853C8CE393E07981870F911D0E946D
:104E20003B3E682EC90160E170E00E945E3C260FA7
:104E3000371FC9016816190618F4861991090FC0A1
:104E40008C5E9F4F8615910540F48C899D8984392D
:104E500081E1980710F00E94A712812D912D6E9686
:104E6000E2E10C94C43D10928100109280001092F7
:104E70006F0010928B0010928A0057E056BB5FEFD4
:104E8000509385005093840055E050937B0057EB7E
:104E900050937A0051E0509381005FE45A95F1F706
:104EA0000000000045B944B95BE05A95F1F714B829
:104EB00015B81092810080917A0084FFFCCF809316
:104EC0007A000895A7E0B0E0E8E6F7E20C94AA3D86
:104ED00000918501109186010115110509F0ACC002
:104EE000E0918701F0E0EA5AFD4F24912983E09197
:104EF0008801F0E0ED5AFD4F34913F830E94851CFC
:104F000018B815B8498147B95F8154B980918801B3
:104F10000E94030D7C0160918A01862F845F84309A
:104F200008F08AC080917B0190917C01A0917D0165
:104F3000B0917E01615F6D832AE0422E512C612C7D
:104F4000712C9C01AD012B5F3F4F4F4F5F4F298369
:104F50003A834B835C83CA01B901A30192010E9489
:104F6000853C49015A01DA01C9013D813F5F3D831A
:104F7000373039F729813A814B815C812A35334CAE
:104F80004105510508F058C0059708F455C08F81B8
:104F900085B984B91A82198249815A8148155905FF
:104FA00008F44EC014B815B8A89585E080932F0179
:104FB000809188010E94030D89839A8389819A8157
:104FC000E816F90608F045C08E199F099E838D8367
:104FD000D12CC12CC814D90408F43EC0809188019A
:104FE0000E94030D9C0189E180932F01A895E21690
:104FF000F30618F489010E191F092D813E8102174D
:105000001307A0F4201B310B4D815E81401751071F
:1050100069F0A4EFB1E00E94C33C9A0150E040E087
:105020000E94853C30938601209385010E94851C57
:1050300017B818B814B815B82796E0E10C94C63D17
:105040000E94C40C29813A812E5F3F4F3A83298305
:10505000A3CF1E821D82BCCF0E94C40C9FEFC91A31
:10506000D90AB8CFAAE0B0E0E8E3F8E20C94A83D92
:1050700088ED91E0E3D560EF6E8354980E94B90CFF
:1050800014BC16BC1092120110921301109214015C
:105090001092150181E085BB80936E001092800014
:1050A000A5E2B4EFB0938B00A0938A00E1E0F0E0BA
:1050B000F0938900E093880010928500109284009C
:1050C00083B5816083BDF6E0F6BBF0936F00789402
:1050D00064E06093810082E389831D820E94B20CA8
:1050E000A8954F9902C091E09D8385B5882329F04A
:1050F000A981A150A983A111F1CF15BC86B58093D8
:1051000012010E9421070E949C080E9428070E9409
:105110009C080E94C30886E60E946B080E94C7088C
:105120008091120190911301A0911401B091150189
:1051300089839A83AB83BC8347E0BC01CD010E9485
:105140006A0B549880918100882319F08FE30E94A4
:105150006B081092810010926F0020911201309123
:1051600013014091140150911501DA01C901019711
:10517000A109B1098336934CA105B10508F09BC084
:10518000AAE0B0E00E94D83C69837A838B839C8339
:10519000DC01CB014096A11DB11D24E0B695A79579
:1051A000979587952A95D1F7880F991F90936E014F
:1051B00080936D0154980E94B90C16BC1092120194
:1051C000109213011092140110921501F1E0F5BB39
:1051D000F0936E001092700110926F0164E06BBB4F
:1051E00080916800846080936800789480916D005D
:1051F000806180936D0019820E94B20CA8954F992E
:1052000002C081E08D8380916D0084FF05C099818B
:105210009F5F99839A3F81F715BC80916D008F7EC7
:1052200080936D00809168008B7F8093680086B5C5
:10523000809312010E94210784E50E946B080E945E
:10524000C708A0916D01B0916E01B887AF836091DE
:10525000120170911301809114019091150124EDB8
:1052600030E340E050E00E94E83CEF81F885612C9B
:10527000712C43015F01C12CD12CE12CF12C00E0F9
:1052800010E00E943C3D49014A8759871B012C01CF
:105290008F8198858038910500F107E023E745EF7D
:1052A000B4018A85952F0E94480A99819A3F71F529
:1052B0008FE30E946B0810926E0080ED97E00E94D1
:1052C000750DED818E0F29F4FE81F150FE83F111F1
:1052D000D4CE2A96E2E10C94C43D84E6A82EB12CEB
:1052E000C12CD12CE12CF12C00E010E094014A8576
:1052F0005985B101C2010E943C3DF22FE42F07E025
:1053000023E747EF6F2F732F8E2FCCCF94014A8561
:105310005985B101C201263E354B41055105610554
:1053200071058105910539F230F20E94280786E661
:105330000E946B080E94C70894014A855985B101F3
:10534000C20154012115BAEC3B07BAE94B07BBE394
:105350005B076105710581059105F1F0E8F06A01CF
:105360007101820120E030E04AE85DE568E775E41C
:1053700083E691E00E943C3DF22FE42F07E028E411
:105380004AEF6F2F732F8E2F952F0E94480A8AE7BE
:105390000E946B0854988FCFCA84D984710182010E
:1053A00020E030E44AE750E163EF7AE580E090E006
:1053B0000E943C3DF22FE42F07E028E44DEFE1CFBF
:1053C0008F938FB78F939F93AF93BF937894809170
:1053D000120190911301A0911401B09115019F5FEA
:1053E000AF4FBF4F8093120190931301A09314010C
:1053F000B0931501BF91AF919F918F918FBF8F9106
:1054000018958F9386E085BD8F9118951F921FB6D2
:105410001F921124A8951092810015BC1F901FBEE9
:105420001F9018951F921FB61F9211242F933F9320
:105430008F939F9380916F0190917001892B11F44C
:1054400081E085BD20916F013091700180916D01E7
:1054500090916E012817390730F015BC80916D00CE
:105460008F7E80936D0080916F0190917001019605
:105470009093700180936F019F918F913F912F9135
:105480001F901FBE1F9018958B3008F08B50811114
:1054900005C084E492E00E94E3081CC0813029F03A
:1054A000823031F48BE192E0F6CF88ED91E0F3CFDA
:1054B000833099F08430A1F08530A9F08630B1F0C6
:1054C0008730B9F08830C1F08930C9F08A30D1F026
:1054D0008234D9F00C949C08089580E192E0DBCFEF
:1054E0008DE990E0D8CF82E990E0D5CF8BE890E0CD
:1054F000D2CF8FEF91E0CFCF80EF91E0CCCF8FEC88
:1055000091E0C9CF82E392E0C6CF87E292E0C3CFB9
:105510000F93CF93DF9300D000D0CDB7DEB78DE9E6
:1055200090E08CD310921E0160E082E09ED38091C7
:105530001E01883009F04AC00E941A0783E40E94C5
:105540006B080E94C70880917B0190917C01A0911B
:105550007D01B0917E0103E026E440918A01BC0107
:10556000CD010E94480A0E949C08609187018091A9
:10557000880101DB90938401809383010E942107BD
:105580008CE591E00E94E308809183019091840171
:105590008A3FAFEF9A07B0F422E044E06EEF0E943A
:1055A0002C0B0E949C0888EE93E00E94750D8823C6
:1055B00009F4B8CF0F900F900F900F90DF91CF911B
:1055C0000F9108958FE30E946B08EBCF0E94C308F0
:1055D0000E942107E6CF0895AEE0B0E0E2EFFAE2E4
:1055E0000C94A93D8BE192E029D380E18093800067
:1055F00010926F0081E090E0909389008093880082
:1056000010928B0010928A0083E086BB1092820079
:1056100088E08093810015B881E184B918B881E0F1
:1056200087B9229A89E080938100AAE0DA2ECC24FF
:10563000C39421E030E040E050E029873A874B876F
:105640005C8731E13D87EE24E394F12C8AE0882EDB
:10565000912CA12CB12C8C2D6D2D0E94523CA92F88
:10566000B0E029853A854B855C850E94D83C6D83E6
:105670007E838F839887BD85B23190F0672D702F20
:10568000812F99810E94853C2D813E814F815885D3
:10569000260F371F481F591F2D833E834F8358877E
:1056A0000E941A07312CCD1006C081E03D853231B1
:1056B00008F480E0382E3E868CE3311005C04D851D
:1056C00082E5463108F48EE30E946B080E94900840
:1056D0004D856D817E818F8198850E946A0B8D81B9
:1056E0009E81AF81B8859C5DAB40BF4FBC01CD01B1
:1056F0002D813E814F815885220F331F441F551F36
:105700000E94853C29833A834B835C838B819C81F7
:105710008F3F910509F008F4A3C08DE080938100CC
:1057200080E094E02C01712C612C69817A818B815D
:105730009C81A30192010E94853C21503109309344
:105740008900209388008091880090918900892B9E
:1057500021F4F0928900E09288000E949C080E9447
:10576000210786E60E946B080E949008009188003D
:105770001091890060E072E18AE790E0A301920154
:105780000E94853CA4E6B0E00E94D83C0F5F1F4F0A
:10579000980150E040E00E94853C29013A01A4E6CE
:1057A000B0E02D813E814F8158850E94D83CA301F5
:1057B0009201261B370B480B590B29833A834B83E5
:1057C0005C8305E228E44EEF69817A818B819C81BC
:1057D0000E94480A8AE70E946B080E949C0880ED9C
:1057E00097E00E94750D883C08F07DC0813508F473
:1057F0006DC0332009F454C03D8531503D87698523
:105800007A858B859C85A50194010E94853C29871A
:105810003A874B875C876D817E818F8198850E9456
:10582000853CCA01B901A50194010E94853C6E879F
:105830009AE0D92E0EC0FAE0DF2E41E04E8781E0DB
:1058400090E0A0E0B0E089879A87AB87BC8791E1C0
:105850009D87CE847D800E811F81A885A983FBCE84
:105860008034910530F08CE08093810080E091E0FD
:1058700059CF8830910530F08BE08093810080E42F
:1058800090E050CF892B31F08AE08093810088E04E
:1058900090E048CF89E08093810081E090E042CFA2
:1058A0004D85463140F64F5F4D87463111F485E115
:1058B000D82EAAE0B0E029853A854B855C850E9408
:1058C000D83C69877A878B879C87C3CF8B3008F059
:1058D000C3948C2D90E06D2D70E06F5F7F4F0E9420
:1058E000723C8E87B6CF109281001092800017B85C
:1058F00014B822982E96E1E10C94C53D4F925F9228
:105900006F927F928F929F92AF92BF92CF92DF92CF
:10591000EF92FF92CF93DF9300D000D000D0CDB7AD
:10592000DEB780E192E08AD183E28093800010921A
:105930006F008FEF90E090938B0080938A0083E05C
:1059400086BB1092820015B881E184B918B881E055
:1059500087B9229A81E090E0909389008093880033
:1059600089E0809381001D8292E31E8284E6882E66
:10597000912CA12CB12C44244A9423E0522E612C6A
:10598000712C8D81981709F443C0943608F0945611
:105990009D839D81292F30E0AFEFB3E00E94C33C8F
:1059A000DC01CB01C296A11DB11DBC01CD01A50139
:1059B00094010E94853C69017A0130938B00209309
:1059C0008A000E941A07A8EEB3E0A70196010E9480
:1059D000D83CDC01CB0181509E4FAF4FBF4F898334
:1059E0009A83AB83BC83BC01CD01A30192010E94C9
:1059F000853C690125E045E26FEFC6010E942C0B52
:105A00000E949C089E81993218F08CE30E94CB0C76
:105A100080E496E00E94750D8E83833860F49D814A
:105A2000965F833308F0ADCFAE819D81AA2309F440
:105A3000A8CF9F5FA6CF17B8109281001092800068
:105A400014B8229826960FB6F894DEBF0FBECDBFCD
:105A5000DF91CF91FF90EF90DF90CF90BF90AF900C
:105A60009F908F907F906F905F904F900895CF930D
:105A70008FEC91E0E3D08BE393E00E943B3EC82F94
:105A800081E80E9449078C2F0E9449070E941A074B
:105A900024E040E260E08C2F90E00E942C0B0E94FA
:105AA0009C0880E496E00E94750D823840F48823BB
:105AB00039F3893210F0CF5FE3CFC150E1CF6C2FC3
:105AC0008BE393E00E94483ECF9108950F931F937C
:105AD000CF938FEF91E0B2D080E493E00E943B3E01
